:10000000281700205544000011430000134300004E
:1000100015430000174300001943000000000000D2
:100020000000000000000000000000001B43000072
:100030001D430000000000001F430000214300009A
:100040007D44000081440000854400008944000094
:100050008D44000091440000954400009944000044
:100060009D440000A1440000A5440000A9440000F4
:10007000AD440000B1440000B5440000B9440000A4
:10008000BD440000C1440000C5440000C944000054
:1000900029430000CD440000D1440000D5440000B5
:1000A000D9440000DD440000E1440000E5440000C4
:1000B000E9440000ED440000F1440000F544000074
:1000C000F9440000FD440000014500000545000022
:1000D000094500000D4500001145000015450000D0
:1000E000194500001D450000214500000EB4002008
:1000F00003B070470021A0F844104FF43F41A0F82E
:100100004010002070474FF43F41B0F8402032EAE1
:100110000101A0F8401000207047002070470EB485
:100120000121A0F840100021A0F840100021A0F803
:1001300044100021A0F85010002003B0704730B4E4
:1001400000220B7830F8234048F68F131C40CB7800
:10015000002B05D0022B06D009D3032B04D009E0D5
:1001600054F4007407E006E054F4C06403E054F46F
:10017000806400E0012244F4004454F080040B78D1
:1001800020F823400B7830F8234048F68F731C404A
:100190000B781C4344F4004454F080040B7820F89E
:1001A00023400B7B002B40F0A2804B78002B3FD0EC
:1001B000B0F850301B180C7813EB041313F5806360
:1001C000CC88A4B2640864001C800B7830F823301B
:1001D0005B060CD50B7830F8234048F68F731C4033
:1001E00044F4004454F0C0040B7820F82340CB784A
:1001F000012B0FD00B7830F8234048F6BF731C401A
:1002000094F0200444F4004454F08004097820F869
:1002100021402BE10B7830F8234048F6BF731C4097
:1002200044F4004454F08004097820F821401DE192
:10023000B0F850301B180C78E40013EB440313F5AE
:100240008163CC88A4B2640864001C80B0F850407C
:1002500024180B78DB0014EB430404F20C440B6904
:10026000002B09D1258848F2FF331D4025802388C3
:1002700053F40043238016E00B693F2B08D20B692F
:100280005B080D7CED0700D55B1C9B0223800AE018
:100290000B695B090D7C15F01F0F00D15B1E9B02E3
:1002A00053F4004323800B7830F823305B040CD5E3
:1002B0000B7830F8234048F68F731C4044F44044D8
:1002C00054F080040B7820F823400B7830F823405A
:1002D0004BF68F731C4094F4805494F4005444F40F
:1002E000004454F08004097820F82140BEE00B78E7
:1002F00030F8234048F68F731C4044F4014454F016
:1003000080040B7820F82340B0F850301B180C788C
:1003100013EB041313F580630C89A4B26408640022
:100320001C80B0F850301B180C78E40013EB440329
:1003300013F581634C89A4B2640864001C804B7877
:10034000002B42D10B7830F823305B040CD50B78AE
:1003500030F8234048F68F731C4044F4404454F076
:1003600080040B7820F823400B7830F823305B06AC
:100370000CD50B7830F8234048F68F731C4044F4BA
:10038000004454F0C0040B7820F823400B7830F878
:1003900023404BF68F731C4094F4805494F4005423
:1003A00044F4004454F080040B7820F823400B7888
:1003B00030F8234048F6BF731C4044F4004454F026
:1003C0008004097820F8214050E00B7830F8233081
:1003D0005B040CD50B7830F8234048F68F731C4033
:1003E00044F4404454F080040B7820F823400B7808
:1003F00030F823305B060CD50B7830F8234048F6F4
:100400008F731C4044F4004454F0C0040B7820F86F
:100410002340CB78012B0FD00B7830F8234048F6DF
:10042000BF731C4094F0200444F4004454F0800452
:100430000B7820F823400CE00B7830F8234048F686
:10044000BF731C4044F4004454F080040B7820F83F
:1004500023400B7830F823404BF68F731C4044F454
:10046000004454F08004097820F821401000C0B204
:1004700030BC70470A7B002A42D14A78002A1FD03C
:100480000A7830F8222052060CD50A7830F822304B
:1004900048F68F72134043F4004353F0C0030A78C8
:1004A00020F822300A7830F8223048F6BF72134024
:1004B00043F4004353F08003097820F82130B9E079
:1004C0000A7830F8222052040CD50A7830F822300D
:1004D00048F68F72134043F4404353F080030A7888
:1004E00020F822300A7830F822304BF68F72134011
:1004F00043F4004353F08003097820F8213099E059
:100500004A78002A4BD10A7830F8222052040CD5C0
:100510000A7830F8223048F68F72134043F4404393
:1005200053F080030A7820F822300A7830F822202D
:1005300052060CD50A7830F8223048F68F721340F4
:1005400043F4004353F0C0030A7820F822300A78BD
:1005500030F8223048F68F72134043F4004353F0D2
:10056000C0030A7820F822300A7830F822304BF69F
:100570008F72134043F4004353F080030A7820F84D
:1005800022300A7830F8223048F6BF72134043F424
:10059000004353F08003097820F821304AE00A78BC
:1005A00030F8222052040CD50A7830F8223048F670
:1005B0008F72134043F4404353F080030A7820F8CD
:1005C00022300A7830F8222052060CD50A7830F80A
:1005D000223048F68F72134043F4004353F0C003B7
:1005E0000A7820F822300A7830F8223048F68F72E4
:1005F000134043F4404353F080030A7820F822303C
:100600000A7830F8223048F6BF72134043F40043B2
:1006100053F080030A7820F822300A7830F822302C
:100620004BF68F72134043F4004353F08003097874
:1006300020F821300020704770B504000E0070785B
:10064000012840F0E5823069B169884201D23569FC
:1006500000E0B569307B002812D12B009BB2F288F4
:100660007169200000F0D7FC2100B4F85000411857
:100670003078C00011EB400101F204410D80B5E279
:10068000F078022840F06A813069316A884280F04F
:100690004481307834F8201048F68F70014041F4DE
:1006A000014151F08001307824F82010306A401B5D
:1006B0003062307834F82000400640F19780210005
:1006C000707800282AD12100B4F850004118307801
:1006D000C00011EB400101F20C41002D09D10A8844
:1006E00048F2FF3002400A80088850F40040088039
:1006F00013E03F2D07D228004008EA0700D5401C30
:100700008002088009E02800400915F01F0F00D181
:10071000401E800250F4004008800CE070780128F0
:1007200009D1B4F8500041183078C00011EB4001F5
:1007300001F20C410D8072892B009BB292B271695B
:10074000200000F068FC7069284470613069316AEB
:10075000884203D2306A401B306202E0356A0020D2
:100760003062707800282AD12100B4F85000411876
:100770003078C00011EB400101F20441002D09D195
:100780000A8848F2FF3002400A80088850F400408E
:10079000088013E03F2D07D228004008EA0700D563
:1007A000401C8002088009E02800400915F01F0F56
:1007B00000D1401E800250F4004008800DE07078A7
:1007C00001280AD12100B4F8500041183078C00047
:1007D00011EB400101F204410D8032892B009BB2E4
:1007E00092B27169200000F016FCFFE170780028D9
:1007F0002AD12100B4F8500041183078C00011EB24
:10080000400101F20441002D09D10A8848F2FF306D
:1008100002400A80088850F40040088013E03F2D11
:1008200007D228004008EA0700D5401C8002088053
:1008300009E02800400915F01F0F00D1401E80027A
:1008400050F4004008800DE0707801280AD12100A2
:10085000B4F8500041183078C00011EB400101F2AB
:1008600004410D8032892B009BB292B27169200045
:1008700000F0D1FB7069284470613069316A8842A8
:1008800003D2306A401B306202E0356A00203062D9
:100890002100707800282AD12100B4F850004118B6
:1008A0003078C00011EB400101F20C41002D09D15C
:1008B0000A8848F2FF3002400A80088850F400405D
:1008C000088013E03F2D07D228004008EA0700D532
:1008D000401C8002088009E02800400915F01F0F25
:1008E00000D1401E800250F4004008800CE0707877
:1008F000012809D1B4F8500041183078C00011EB3C
:10090000400101F20C410D8072892B009BB292B222
:100910007169200000F07FFB68E1336A307834F8B9
:10092000201048F68F60014041F4004151F08001F1
:10093000307824F820102100B4F8500041183078A5
:10094000C00011EB400101F204410B8032899BB2DF
:1009500092B27169200000F05EFB47E1307834F814
:10096000201048F68F70014041F4014151F08001A0
:10097000307824F82010306A401B3062307834F828
:100980002000400640F19A802100707800282AD18A
:100990002100B4F8500041183078C00011EB40013C
:1009A00001F20C41002D09D10A8848F2FF300240C3
:1009B0000A80088850F40040088013E03F2D07D2D9
:1009C00028004008EA0700D5401C8002088009E0A2
:1009D0002800400915F01F0F00D1401E800250F47E
:1009E000004008800CE07078012809D1B4F850006C
:1009F00041183078C00011EB400101F20C410D802C
:100A000072892B009BB292B27169200000F003FB47
:100A10007069284470613069316A884203D2306A53
:100A2000401B306202E0356A00203062002D00F089
:100A3000DD80707800282AD12100B4F850004118D8
:100A40003078C00011EB400101F20441002D09D1C2
:100A50000A8848F2FF3002400A80088850F40040BB
:100A6000088013E03F2D07D228004008EA0700D590
:100A7000401C8002088009E02800400915F01F0F83
:100A800000D1401E800250F4004008800DE07078D4
:100A900001280AD12100B4F8500041183078C00074
:100AA00011EB400101F204410D8032892B009BB211
:100AB00092B27169200000F0AEFA97E070780028D9
:100AC0002AD12100B4F8500041183078C00011EB51
:100AD000400101F20441002D09D10A8848F2FF309B
:100AE00002400A80088850F40040088013E03F2D3F
:100AF00007D228004008EA0700D5401C8002088081
:100B000009E02800400915F01F0F00D1401E8002A7
:100B100050F4004008800DE0707801280AD12100CF
:100B2000B4F8500041183078C00011EB400101F2D8
:100B300004410D8032892B009BB292B27169200072
:100B400000F069FA7069284470613069316A88423E
:100B500003D2306A401B306202E0356A0020306206
:100B6000002D43D02100707800282AD12100B4F84C
:100B7000500041183078C00011EB400101F20C41E7
:100B8000002D09D10A8848F2FF3002400A80088807
:100B900050F40040088013E03F2D07D228004008A1
:100BA000EA0700D5401C8002088009E028004009BF
:100BB00015F01F0F00D1401E800250F40040088045
:100BC0000CE07078012809D1B4F850004118307851
:100BD000C00011EB400101F20C410D8072892B0025
:100BE0009BB292B27169200000F015FA307834F8A7
:100BF000201048F6BF70014091F0100191F02001E3
:100C000041F4004151F08001307824F8201049E08F
:100C1000307B002848D13069B169884204D23069FC
:100C2000B169091AB16102E0B0690021B161220025
:100C3000B4F850108A183178C90012EB410202F260
:100C40000C42002809D1118848F2FF300140118080
:100C5000108850F40040108013E03F2807D20100B4
:100C60004908C00700D5491C8802108009E001002E
:100C7000490910F01F0F00D1491E880250F40040AE
:100C80001080307834F820104BF68F70014091F4CA
:100C9000805191F4005141F4004151F080013078CD
:100CA00024F82010002070BDF078022840F0A380C6
:100CB000707800282ED12100B4F850004118307807
:100CC000C00011EB400101F204413069002809D154
:100CD0000A8848F2FF3002400A80088850F4004039
:100CE000088016E030693F2808D230694008327C1D
:100CF000D20700D5401C800208800AE03069400914
:100D0000327C12F01F0F00D1401E800250F40040D0
:100D100008800EE0707801280BD12100B4F8500053
:100D200041183078C00011EB400101F204413069F4
:100D300008802100707800282ED12100B4F85000DE
:100D400041183078C00011EB400101F20C413069CC
:100D5000002809D10A8848F2FF3002400A8008883A
:100D600050F40040088016E030693F2808D230690E
:100D70004008327CD20700D5401C800208800AE07F
:100D800030694009327C12F01F0F00D1401E8002F2
:100D900050F4004008800DE0707801280AD1B4F8C2
:100DA000500041183078C00011EB400101F20C41B5
:100DB00030690880F06900283FF463AF307834F878
:100DC000200044F24001014044F24002914204D02C
:100DD00044F2400108427FF454AF307834F82010D8
:100DE00048F68F70014041F4004151F0C001307865
:100DF00024F8201045E7F078012840F0858030691C
:100E0000B169884204D23069B169091AB16102E05E
:100E1000B0690021B161717800292AD12200B4F8AB
:100E200050108A183178C90012EB410202F20442D4
:100E3000002809D1138848F2FF310B401380118834
:100E400051F40041118013E03F2807D20100490806
:100E5000C30700D5491C8902118009E00100490936
:100E600010F01F0F00D1491E890251F4004111807A
:100E70000DE0717801290AD12200B4F850108A18C7
:100E80003178C90012EB410202F2044210802200C4
:100E9000717800292AD12200B4F850108A183178CC
:100EA000C90012EB410202F20C42002809D111885C
:100EB00048F2FF3001401180108850F4004010804B
:100EC00013E03F2807D201004908C00700D5491C9C
:100ED0008802108009E00100490910F01F0F00D1BD
:100EE000491E880250F4004010800CE071780129FE
:100EF00009D1B4F850108A183178C90012EB4102B8
:100F000002F20C421080BCE60120CCE64A78002AAE
:100F10000FD00A7830F8223048F6BF72134093F0B1
:100F2000100343F4004353F08003097820F8213084
:100F30000EE00A7830F822304BF68F72134093F4AB
:100F4000805343F4004353F08003097820F82130A4
:100F5000002070470A7B002A4AD14A78002A24D010
:100F60000A7830F8222052060CD50A7830F8223060
:100F700048F68F72134043F4004353F0C0030A78DD
:100F800020F82230CA78012A32D00A7830F822308C
:100F900048F6BF72134093F0200343F4004353F02C
:100FA0008003097820F8213022E00A7830F82220E6
:100FB00052040CD50A7830F8223048F68F7213406C
:100FC00043F4404353F080030A7820F822300A7833
:100FD00030F822304BF68F72134093F4805393F421
:100FE000005343F4004353F08003097820F8213084
:100FF00000207047C9B2002902D18021A0F84C100E
:10100000002070470020704700207047B0F844006F
:1010100070470020704710B49BB25B1C5B0892B213
:1010200010EB420010F580600AE00A78491C0C7849
:101030002402A4B222430280801C801C491C5B1E37
:10104000002BF2D110BC704710B49BB21C00640896
:1010500092B210EB420010F5806008E00288801C1C
:101060000A70491C120A0A70491C801C641E002C5C
:10107000F4D1DA0701D50088087010BC704701026E
:1010800018B585B00400002C01D10120AFE094F820
:10109000A902002805D1002084F8A802200000F051
:1010A00087FF032084F8A9022068FFF72CF8211D90
:1010B00083B06846202201F0E1F80EBC2068FFF7FB
:1010C00015F8002804D0022084F8A90201208EE03F
:1010D00000212068FFF721F8002033E00121C0B291
:1010E000282202FB00F2224482F82910C0B22821F3
:1010F00001FB00F1214481F82800C0B2C0B22821D0
:1011000001FB00F12144C8860021C0B2282202FB65
:1011100000F2224482F82B100021C0B2282202FBE8
:1011200000F2224491630021C0B2282202FB00F2A7
:101130002244D1630021C0B2282202FB00F22244E3
:101140001164401CC0B261688842C7D300202FE000
:101150000021C0B2282202FB00F2224482F8691169
:10116000C0B2282101FB00F1214481F8680100216F
:10117000C0B2282202FB00F2224482F86B11002147
:10118000C0B2282202FB00F22244C2F878110021EA
:10119000C0B2282202FB00F22244C2F87C110021D6
:1011A000C0B2282202FB00F22244C2F88011401C87
:1011B000C0B261688842CBD3211D83B0684620222B
:1011C00001F05CF80EBC2068FEF7A9FF002804D0EF
:1011D000022084F8A902012009E0002084F82400FC
:1011E000012084F8A9022068FFF70EFF002006B056
:1011F00010BD10B5040094F8A802012801D1022006
:1012000010E0012084F8A8022068FEF773FF012196
:10121000200001F01CF82068FFF7F4FE002084F89D
:10122000A802002010BD1FB504002068FFF7EEFEE5
:10123000000402D5200000F01FFA2068FFF7E6FE48
:1012400040050FD52068B0F844104FF6FF3001403C
:101250002068A0F84410200000F0EDFE00212000DE
:1012600000F0BBF82068FFF7D1FE400408D52068E5
:10127000B0F844104BF6FF7001402068A0F844100D
:101280002068FFF7C3FE800408D52068B0F844103A
:101290004DF6FF7001402068A0F844102068FFF769
:1012A000B5FEC0041DD52068B0F840104FF6FB70A5
:1012B00001402068A0F840102068B0F840104FF6B8
:1012C000F77001402068A0F84010200000F0D6FE22
:1012D0002068B0F844104EF6FF7001402068A0F876
:1012E00044102068FFF792FE000556D5002008E064
:1012F0002168C0B231F820106A46C0B222F810103E
:10130000401CC0B20828F3D32068B0F8400050F069
:1013100001002168A1F840002068B0F840104FF6A5
:10132000FE7001402068A0F840102068B0F844002A
:101330004005FAD52068B0F844104FF6FF30014060
:101340002068A0F84410002008E06946C0B231F8D7
:1013500010102268C0B222F82010401CC0B2082829
:10136000F3D32068B0F8400050F008002168A1F8DD
:1013700040002068B0F844104FF2FF700140206830
:10138000A0F844102068B0F8400050F00400216834
:10139000A1F84000200000F061FE2068FFF736FE53
:1013A00080050BD52068B0F844104FF6FF5001407F
:1013B0002068A0F84410200000F037FE2068FFF7F6
:1013C00025FEC00508D52068B0F844104FF6FF6030
:1013D00001402068A0F844101FBD10B5040094F827
:1013E000A802012801D102200CE0012084F8A80203
:1013F00084F82410C9B22068FFF7FCFD002084F8AF
:10140000A802002010BD70B505000026C9B208066C
:101410000BD5C9B211F007042820444305EB0400A2
:1014200010F12804012060700AE0C9B211F007042D
:101430002820444305EB040010F5B47400206070CC
:1014400011F00701217092B22261E37060780028E8
:1014500001D02078E081DBB2022B01D10020207185
:1014600095F8A802012801D102200BE0012085F89F
:10147000A80221002868FEF762FE002085F8A80275
:101480003000C0B270BD10B50400C9B208060AD55C
:10149000C9B211F007022820424304EB02002830B1
:1014A000012242700AE0C9B211F00702282042432B
:1014B00004EB020010F5B4700022427011F0070135
:1014C000017094F8A812012901D102200AE001213B
:1014D00084F8A81201002068FEF7CCFF002084F8F1
:1014E000A802002010BD38B50C00E4B214F00705C6
:1014F00028214D4300EB050111F5B4714A618B6160
:101500000022CA6100224A7014F007020A7014F027
:10151000070F03D10068FFF78FF802E00068FFF7BC
:101520008BF8002032BDC9B211F0070128225143C7
:101530000844D0F88401704738B51C00C9B211F0D6
:10154000070528235D4300EB050328335A619C619E
:10155000012283F824201C620022DA6101225A70E1
:1015600011F007021A7011F0070F04D1190000687A
:10157000FFF762F803E019000068FFF75DF800204C
:1015800032BD38B504000D006068EDB215F00701FA
:10159000884201D2012034E0EDB228060BD5EDB22D
:1015A00015F007012820414304EB010010F1280148
:1015B0000120487008E0EDB2282000FB05F020442F
:1015C00010F5B471002048700120887015F00700F4
:1015D000087094F8A802012801D1022011E001202E
:1015E00084F8A8022068FFF791FC15F0070F04D1DA
:1015F00014F52C712068FFF70CFD002084F8A80278
:10160000002032BD10B504006068C9B211F00F02AD
:10161000904201D201202EE0C9B208060AD5C9B213
:1016200011F007022820424304EB02002830012277
:1016300042700AE0C9B211F007022820424304EBCD
:10164000020010F5B470002242700022827011F086
:101650000701017094F8A812012901D102200AE0C3
:10166000012184F8A81201002068FFF773FC002014
:1016700084F8A802002010BD2DE9F041060033E0F7
:101680003068018848F60F70014051F4004130681D
:10169000018016F128043068B0F85000217810EB72
:1016A000C100316811EB400101F20441088880B2A9
:1016B0008005800DE0616069E16908446061002196
:1016C000300000F0A5FC96F8240000280CD0A0699A
:1016D000002809D196F8240050F080003168A1F864
:1016E0004C00002086F824003068B0F84400000464
:1016F00040F1AF813068B0F8440010F00F05EDB252
:10170000002D40F09C80C006BAD516F5B474306840
:101710000088010524D53068B0F85000217810EB1E
:10172000C100316811EB400101F20C41088880B220
:101730008005800DE061E3699BB2E28816F52C71AB
:101740003068FFF781FC3068018840F68F700140F7
:1017500051F0800130680180300000F043FCC3E7A5
:101760000004C1D53068018840F68F70014051F007
:101770008001306801803068B0F85000217810EBAB
:10178000C100316811EB400101F20C41088880B2C0
:101790008005800DE061E069002811D060690028B3
:1017A0000ED0E3699BB2E28861693068FFF74CFCB8
:1017B0006069E169084460610021300000F01AFCB2
:1017C0003068008800058FD431683068B0F8500068
:1017D000411801F20C412069002809D10A8848F219
:1017E000FF3002400A80088850F40040088016E06C
:1017F00020693F2808D220694008227CD20700D502
:10180000401C800208800AE020694009227C12F016
:101810001F0F00D1401E800250F400400880306845
:1018200001884BF68F70014091F4805191F4005182
:1018300041F4004151F080013068018054E7306884
:10184000EDB230F82570380440F1AE803068EDB26A
:1018500030F8251040F68F70014051F0800130685B
:10186000EDB220F82510EDB2282000FB05F0304441
:1018700010F5B47898F80C0000281BD13068B0F847
:10188000500098F8001010EBC100316811EB4001D6
:1018900001F20C410C88A405A40DA4B2002C64D064
:1018A00023009BB2B8F80620D8F814103068FFF770
:1018B000CBFB5AE098F80300022807D13A0092B215
:1018C0004146300000F0C8F804004EE0306898F857
:1018D000001030F8211048F68F70014041F40041AB
:1018E00051F0C001306898F8002020F822103068CC
:1018F00098F8001030F8210040041BD53068B0F88B
:10190000500098F8001010EBC100316811EB400155
:1019100001F204410C88A405A40DA4B2002C24D02B
:1019200023009BB2B8F80820D8F814103068FFF7ED
:101930008BFB1AE03068B0F8500098F8001010EBFC
:10194000C100316811EB400101F20C410C88A40583
:10195000A40DA4B2002C08D023009BB2B8F80A2032
:10196000D8F814103068FFF76FFBD8F81C00A4B249
:101970002018C8F81C00D8F81400A4B22044C8F8F5
:101980001400D8F81800002804D0A4B2D8F8100029
:10199000844205D298F80010300000F02BFB03E0E1
:1019A00041463068FEF748FE38067FF59DAEEDB241
:1019B000282000FB05F0304410F128013068EDB21A
:1019C00030F8252048F60F70024052F4004230688B
:1019D000EDB220F82520C878032807D0C878002861
:1019E00004D0C87802282ED1F8052CD43068B0F87D
:1019F00050000A7810EBC200326812EB400202F28B
:101A0000044212889205920D92B28869824204D2F1
:101A1000886992B2801A886101E000208861886933
:101A2000002804D10978300000F0F2FA5CE6486939
:101A300092B210444861C86992B21218CA61306803
:101A4000FEF7FAFD50E63A0092B2300000F09BF843
:101A50004AE60020BDE8F08170B5530448D503681C
:101A6000B3F850300C7813EBC403046814EB430450
:101A700004F204442488A405A40D8B69A4B2A342F3
:101A800004D38B69A4B21B1B8B6101E000238B6123
:101A90008B69002B10D103680D7833F825504BF675
:101AA0008F731D4095F4005545F4004555F08005B1
:101AB00003680E7823F8265052060ED502680B787C
:101AC00032F8233048F68F72134043F4004353F04A
:101AD000C00302680D7822F82530A4B2002C4FD044
:101AE00023009BB20A8949690068FFF7ADFA47E015
:101AF0000368B3F850300C7813EBC403046814EB9C
:101B0000430404F20C442488A405A40D8B69A4B2F8
:101B1000A34204D38B69A4B21B1B8B6101E0002399
:101B20008B618B69002B10D103680D7833F8255039
:101B30004BF68F731D4095F4005545F4004555F064
:101B4000800503680E7823F8265052060ED40268EA
:101B50000B7832F8233048F68F72134043F4004379
:101B600053F0C00302680D7822F82530A4B2002C8F
:101B700006D023009BB24A8949690068FFF764FADE
:101B8000200080B270BD70B504000D001600700614
:101B900040F1FD802068B0F85000297810EBC100BA
:101BA000216811EB400101F204410B889B059B0D5C
:101BB0009BB2A869834204D2A8699BB2C01AA861EB
:101BC00001E00020A861A869002866D16878002893
:101BD00014D121682068B0F8500041182878C0005E
:101BE00011EB400101F204410A8848F2FF30024043
:101BF0000A80088850F4004008800FE068780128C7
:101C00000CD121682068B0F8500041182878C00035
:101C100011EB400101F2044100200880216868783E
:101C2000002814D121682068B0F8500041182878A5
:101C3000C00011EB400101F20C410A8848F2FF306C
:101C400002400A80088850F4004008800EE068785E
:101C500001280BD12068B0F8500041182878C00046
:101C600011EB400101F20C4100200880297820008E
:101C700000F0CEF9700440F185812068297830F8B1
:101C8000211048F68F70014041F4404151F080012D
:101C900020682A7820F8221074E170040ED520689C
:101CA000297830F8211048F68F70014041F4404106
:101CB00051F0800120682A7820F8221095F824003D
:101CC000012840F05F8168699BB218446861E86947
:101CD0009BB21818E861286A2969884204D32B69E5
:101CE000286AC01A28620DE0286A002804D19BB235
:101CF000002085F8240005E0002085F824002B6AE8
:101D000000202862687800282BD121682068B0F86C
:101D1000500041182878C00011EB400101F2044145
:101D2000002B09D10A8848F2FF3002400A80088857
:101D300050F40040088013E03F2B07D21800400801
:101D4000DA0700D5401C8002088009E0180040092D
:101D500013F01F0F00D1401E800250F40040088095
:101D60000EE0687801280BD121682068B0F8500097
:101D700041182878C00011EB400101F204410B80AA
:101D80009BB22A8969692068FFF745F9FAE0206863
:101D9000B0F85000297810EBC100216811EB400128
:101DA00001F20C410B889B059B0DA8699BB29842E0
:101DB00004D3A8699BB2C01AA86101E00020A86101
:101DC000A869002866D16878002814D121682068A5
:101DD000B0F8500041182878C00011EB400101F222
:101DE00004410A8848F2FF3002400A80088850F413
:101DF000004008800FE0687801280CD12168206835
:101E0000B0F8500041182878C00011EB400101F2F1
:101E100004410020088021686878002814D12168D6
:101E20002068B0F8500041182878C00011EB40013C
:101E300001F20C410A8848F2FF3002400A8008880B
:101E400050F4004008800EE0687801280BD120682B
:101E5000B0F8500041182878C00011EB400101F2A1
:101E60000C41002008802978200000F0D1F870048F
:101E700000F188802068297830F8211048F68F70AA
:101E8000014041F4404151F0800120682A7820F857
:101E9000221077E070040ED42068297830F82110E1
:101EA00048F68F70014041F4404151F080012068B4
:101EB0002A7820F8221095F82400012862D1686958
:101EC0009BB218446861E8699BB21818E861286AF7
:101ED0002969884204D32B69286AC01A28620DE058
:101EE000286A002804D19BB2002085F8240005E070
:101EF0002B6A00202862002085F824002168687879
:101F000000282BD121682068B0F8500041182878AB
:101F1000C00011EB400101F20C41002B09D10A88ED
:101F200048F2FF3002400A80088850F400400880E0
:101F300013E03F2B07D218004008DA0700D5401CF9
:101F40008002088009E01800400913F01F0F00D13B
:101F5000401E800250F4004008800DE0687801289F
:101F60000AD12068B0F8500041182878C00011EB61
:101F7000400101F20C410B809BB26A8969692068BB
:101F8000FFF749F82068297830F8211048F6BF702B
:101F9000014091F0100191F0200141F4004151F015
:101FA000800120682A7820F82210002070BD0000EF
:101FB00080B50068A049884213D1A048006850F459
:101FC00000009E4908609D48006810F400000090E1
:101FD000009800220021142000F0FFF9142000F0E6
:101FE0000DFA01BD80B510F52C71D0F8E80200F0B3
:101FF00061FA01BD80B5C9B2282202FB01F2024498
:10200000D2F87C21C9B2D0F8E80200F085FA01BD0F
:1020100080B5C9B2282202FB01F20244D26BC9B2D8
:10202000D0F8E80200F0CAFA01BD80B5D0F8E802A5
:1020300000F08BFB01BD38B504000125A068022823
:1020400001D000F06DFC2900C9B2D4F8E80200F01C
:1020500066FBD4F8E80200F032FB31BD10B5040095
:10206000D4F8E80200F05EFBA069002805D07448AF
:10207000006850F006007249086010BD80B5D0F8C5
:10208000E80200F058FB01BD10B504006D48C0F82F
:10209000E8426C48C4F8C00267486A4908600820F2
:1020A0006849486002206749886000206549886166
:1020B00000206449C8610020624908626148FEF757
:1020C000DFFF002801D000F02BFC182300220021A4
:1020D000D4F8C00200F026FC582300228021D4F856
:1020E000C00200F01FFCC02300228121D4F8C002EE
:1020F00000F018FC4FF4887300220121D4F8C002CC
:1021000000F010FC4FF4807300228221D4F8C0024A
:1021100000F008FC002010BD80B500210021D0F89F
:10212000C002FFF766F8C0B200F092F8C0B202BD7C
:1021300010B51C00002300231300DBB2220092B272
:10214000C9B2D0F8C002FFF75EF9C0B200F080F863
:10215000C0B210BD80B500220022C9B2D0F8C002C2
:10216000FFF791F9C0B200F073F8C0B202BD80B5BC
:1021700000220022C9B2D0F8C002FFF702FAC0B2B2
:1021800000F066F8C0B202BD80B500220022C9B2DC
:10219000D0F8C002FFF736FAC0B200F059F8C0B26A
:1021A00002BDD0F8C022C9B2080609D5C9B211F0E3
:1021B0007F012820414302EB010090F82A0008E04B
:1021C000C9B211F07F012820414302EB010090F8D1
:1021D0006A01704780B500220022C9B2D0F8C0025F
:1021E000FFF7FBF8C0B200F033F8C0B202BD10B583
:1021F000002400249BB2C9B2D0F8C002FFF79CF9BA
:10220000C0B200F025F8C0B210BD10B50024002403
:102210009BB2C9B2D0F8C002FFF765F9C0B200F0B6
:1022200017F8C0B210BD80B5C9B2D0F8C002FFF730
:102230007AF902BD04487047005C00401C1002405F
:1022400010ED00E04C090020FC0E002070477047A4
:102250000021C0B2002805D0022807D004D30328EB
:1022600006D007E0002006E0022004E0012002E0A2
:10227000022000E00220C0B270470000103A07D3ED
:1022800030B4B1E83810103AA0E83810F9D230BCB8
:10229000530724BFB1E80810A0E8081044BF51F864
:1022A000043B40F8043BD20724BF31F8022B20F84E
:1022B000022B44BF0B7803707047121F17D35B00CB
:1022C00009D151F8043B20F8023B1B0C121F20F8E7
:1022D000023BF6D20BE051F8043B00F8013B1B0A2D
:1022E00020F8023B1B0C121F00F8013BF3D238BF51
:1022F000121D521E24BF11F8013B00F8013BF8D813
:102300007047000010F0070041490A684FF6FF01CE
:102310000A40404951EA00210A433D4802607047A3
:102320003B480068C0F30220704740B2002808D440
:10233000012210F01F018A40374940B2400941F89C
:102340002020704740B2002804D40901334A40B22B
:10235000115407E00901324A40B210F00F00104456
:1023600000F8041C704710B410F00700D0F1070308
:10237000052B01D3042301E0D0F10703041D072C32
:1023800001D2002000E0C01E012414FA03F35B1EFA
:1023900019408140012313FA00F0401E1040084309
:1023A00010BC704780B5411EB1F1807F01D3012080
:1023B0000EE0401E1B4908600F215FF0FF30FFF761
:1023C000C1FF002018490860072018490860002054
:1023D00002BD80B5FFF796FF01BD70B504000D008A
:1023E00016000020FFF79CFF32002900FFF7BBFF1B
:1023F0000100200040B2FFF7A5FF70BD80B540B2DC
:10240000FFF793FF01BD80B5FFF7CCFF02BD0000D1
:102410000CED00E00000FA0500E100E000E400E05F
:1024200018ED00E014E000E018E000E010E000E04B
:1024300080B5002801D1022011E0D0F8B432002B81
:1024400002D00023C0F8B432002901D0C0F8B01285
:10245000012180F89C120270FFF716FE002002BDD9
:102460000022002903D0C0F8B412002000E00220AE
:10247000C0B2704780B5FFF74FFE002002BD0020BC
:10248000704710B50224D0F8B422002A07D0C9B290
:10249000D0F8B42212689047002800D10024200010
:1024A000C0B210BD80B5C9B2D0F8B422526890470E
:1024B000002002BD10B5040014F52A7000F0E2FD02
:1024C0000120C4F89402B4F8AE02C4F8980294F85B
:1024D000A80210F01F00002803D002280DD006D358
:1024E00011E014F52A71200000F03EFA12E014F514
:1024F0002A71200000F075FA0CE014F52A71200012
:1025000000F0A4FA06E094F8A81211F0800120006F
:10251000FFF72DFE002010BD10B504001000C9B259
:10252000002939D114F5AA72D4F89412032927D1BD
:102530001169D368994211D2D36811695B1AD360CB
:10254000D1681369994201D2D26800E0126992B24F
:102550000100200000F00DFE002010BDD4F8B402F0
:102560000069002808D094F89C02032804D12000B8
:10257000D4F8B41209698847200000F003FEEBE7A5
:10258000D4F894020528E7D10020C4F89402002171
:102590002000FFF7ECFDDFE7D4F8B40280690028E3
:1025A0000AD094F89C02032806D1C9B22000D4F8BE
:1025B000B42292699047CFE70220CEE710B504001D
:1025C0001000C9B2002968D114F11402D4F8941291
:1025D00002294AD11169D368994210D2D36811698E
:1025E0005B1AD360D26892B20100200000F0A6FD11
:1025F0000023002200212000FFF707FE41E0906841
:102600001169B0FBF1F301FB1300002817D19068AA
:102610001169884213D39068D4F8981288420ED278
:1026200000220021200000F089FD0020C4F898025B
:102630000023002200212000FFF7E7FD21E0D4F86D
:10264000B402C068002808D094F89C02032804D182
:102650002000D4F8B412C968884780212000FFF711
:1026600086FD200000F099FD0BE0D4F894020428C8
:1026700003D0D4F89402002803D180212000FFF772
:1026800076FD94F8A002012805D12000FFF7F7FE9F
:10269000002084F8A002002010BDD4F8B4024069E4
:1026A00000280AD094F89C02032806D1C9B2200061
:1026B000D4F8B42252699047EDE70220ECE710B558
:1026C00004004023002200212000FFF731FD0120FB
:1026D000C4F858014020C4F864014023002280213E
:1026E0002000FFF725FD0120A0614020606201204D
:1026F00084F89C020020C4F894020020606000204E
:10270000C4F8A402D4F8B802002806D06168C9B29F
:102710002000D4F8B42252689047002010BD017404
:102720000020704790F89C1280F89D12042180F8D8
:102730009C120020704790F89C12042903D190F855
:102740009D1280F89C120020704780B590F89C1272
:10275000032908D1D0F8B412C969002903D0D0F8F0
:10276000B412C9698847002002BD000018B585B0C1
:10277000684666491422FFF781FD6C4600F018FD9B
:1027800000F020F800F065F800F026FD012202219B
:102790005F4800F02DFE00F05FFE5E490968401AB8
:1027A00040F2E9318842F6D300F056FE59490860FC
:1027B0001421200000F08DFE4FF48071564800F087
:1027C00021FEE8E700B593B009A8282100F09EFE9D
:1027D0006846142100F09AFE05A8102100F096FE2C
:1027E000012009905FF480300A9000200B900120B6
:1027F0000D90022010905FF4803011905FF48010F3
:10280000129009A800F086FE002801D000F088F898
:102810000F20009002200190002002904FF4806071
:102820000390002004900121684601F0B0F80028D0
:1028300001D000F075F8102005905FF4800008903A
:1028400005A801F0C1F9002801D000F069F813B023
:1028500000BD00B585B001A8102100F057FE2F483B
:10286000006850F010002D4908602C48006810F0F6
:102870001000009000982948006850F02000274977
:1028800008602648006810F0200000900098234857
:10289000006850F00400214908602048006810F0EA
:1028A0000400009000981D48006850F008001B4983
:1028B00008601A48006810F0080000900098002294
:1028C0000221134800F094FD00224FF48071124859
:1028D00000F08EFD02200190012002900020039064
:1028E0000220049001A90A4800F0A0FC4FF4807077
:1028F000019001200290002003900220049001A981
:10290000054800F093FC05B000BD0000FC4300004A
:10291000000801401C130020000C01401810024068
:1029200072B6FEE710B489B20C0607D589B211F071
:102930000701282461430844283005E089B228248F
:102940006143084410F5B47092B2002A03D100210B
:102950000173C38004E00121017303811B0C4381D7
:10296000002010BC7047000010B500240A7812F057
:102970006002002A08D0202A01D0402A2CD1D0F8A9
:10298000B4229268904729E04A78002A18D0012A98
:102990001CD0032A17D0052A09D0062A04D0082AF9
:1029A0000BD0092A06D014E000F06FF913E000F014
:1029B0006CFA10E000F098FA0DE000F009FB0AE074
:1029C00000F025FB07E000F041FB04E000F048FBCD
:1029D00001E000F06BFB01E000F068FB2000C0B2FA
:1029E00010BD38B504000D000020287810F06000FC
:1029F000002803D0202801D0402821D194F89C023F
:102A0000401E022817D8287902280FDA2900200052
:102A1000D4F8B42292689047E98800290AD1C0B25C
:102A2000002807D1200000F0ADFB03E029002000C2
:102A300000F03CFB03E02900200000F037FB03E03E
:102A40002900200000F032FB002032BD70B50500E7
:102A5000080000248188027812F06002002A0BD05E
:102A6000202A02D0402A40F0098101002800D5F830
:102A7000B4229268904705E1027812F06002202AA1
:102A800007D101002800D5F8B42292689047C0B25F
:102A9000FAE04278002A66D0012A36D0032A40F0B4
:102AA000E88095F89C22022A02D0032A14D027E05D
:102AB000C9B200290BD0C9B2802908D0C9B22800F8
:102AC000FFF755FB80212800FFF751FB03E00100D1
:102AD000280000F0EBFA17E04288002A0CD1C9B2B6
:102AE000002909D0C9B2802906D0C088002803D1A6
:102AF000C9B22800FFF73BFB280000F043FB03E0CE
:102B00000100280000F0D2FAB7E095F89C22022AD2
:102B100002D0032A14D021E0C9B200290BD0C9B2D7
:102B2000802908D0C9B22800FFF721FB80212800A6
:102B3000FFF71DFB03E00100280000F0B7FA11E0E9
:102B40004088002809D111F07F0F03D0C9B22800B6
:102B5000FFF71AFB280000F015FB03E00100280036
:102B600000F0A4FA89E095F89C22022A02D0032AF8
:102B700028D079E0C9B2002907D0C9B2802904D091
:102B80000100280000F092FA72E0C9B2080609D5E7
:102B9000C9B211F07F011420414305EB010010F18F
:102BA000140108E0C9B211F07F011420414305EB84
:102BB000010010F5AA71002008600222280000F030
:102BC000ADFA55E0C9B20A060ED5C9B211F00F032D
:102BD0001422534305EB03029269002A14D1010029
:102BE000280000F063FA43E0C9B211F00F03142289
:102BF000534305EB0302D2F85821002A04D1010007
:102C0000280000F053FA33E0C9B2080609D5C9B26A
:102C100011F07F021420424305EB020010F114066C
:102C200008E0C9B211F07F021420424305EB020014
:102C300010F5AA76C9B2002902D0C9B2802902D102
:102C4000002030600AE0C9B22800FFF7AAFA002885
:102C500002D00120306001E000203060022231000B
:102C6000280000F05BFA03E00100280000F01EFAE3
:102C700003E00100280000F019FA03E00100280039
:102C800000F014FA2000C0B270BDF8B505000E00C7
:102C90000020ADF8000000270024708880B2000AF0
:102CA000C0B201280AD0022810D0032823D0062859
:102CB00000F0A580072800F0B280C2E06946287CB9
:102CC000D5F8B022126890470700BFE0287C0028A2
:102CD00008D16846D5F8B412896A884707000220EF
:102CE000787007E06846D5F8B412C96A88470700CB
:102CF00002207870AAE0B078002808D002282CD0F2
:102D000018D304284FD03BD305285FD071E0D5F805
:102D1000B0024068002807D06946287CD5F8B02268
:102D200052689047070004E03100280000F0BEF927
:102D3000641C63E0D5F8B0028068002807D06946BB
:102D4000287CD5F8B02292689047070004E0310053
:102D5000280000F0ABF9641C50E0D5F8B002C06860
:102D6000002807D06946287CD5F8B022D268904761
:102D7000070004E03100280000F098F9641C3DE0F1
:102D8000D5F8B0020069002807D06946287CD5F83C
:102D9000B02212699047070004E03100280000F0DB
:102DA00085F9641C2AE0D5F8B0024069002807D0F4
:102DB0006946287CD5F8B02252699047070004E0A4
:102DC0003100280000F072F9641C17E0D5F8B00259
:102DD0008069002807D06946287CD5F8B02292691E
:102DE0009047070004E03100280000F05FF9641C00
:102DF00004E03100280000F059F9641C26E0287C2A
:102E0000002806D16846D5F8B412496B88470700F8
:102E100004E03100280000F049F9641C16E0287C29
:102E2000002808D16846D5F8B412096B8847070016
:102E30000720787004E03100280000F037F9641CA6
:102E400004E03100280000F031F9641CE4B2002CE9
:102E50001AD1BDF80000002810D0F08800280DD04D
:102E6000BDF80000F188884202D3F088ADF8000078
:102E7000BDF800203900280000F050F9F088002843
:102E800002D1280000F07EF9F1BD38B50500888830
:102E9000002825D1C888002822D1488880281FD240
:102EA0008C7814F07F0495F89C02032803D1280045
:102EB00000F0FCF817E085F89E422100C9B2280016
:102EC000FFF788F9280000F05DF9E4B2002C03D088
:102ED000022085F89C0206E0012085F89C0202E0B1
:102EE000280000F0E3F831BD38B504000D00688813
:102EF0003649087035480078022804DB2900200094
:102F000000F0D4F861E094F89C02022802D0032873
:102F10001ED051E02D480078002815D02B480078AD
:102F20006060032084F89C02284801782000FFF7A5
:102F3000A8FA022804D12900200000F0B7F844E0E4
:102F4000200000F01FF902E0200000F01BF93CE037
:102F50001E48007800280ED1022084F89C021B48ED
:102F600000786060194801782000FFF79BFA200084
:102F700000F008F91FE0154800786168884217D012
:102F80006168C9B22000FFF78DFA104800786060D0
:102F90000E4801782000FFF774FA022804D12900B6
:102FA000200000F083F810E0200000F0EBF802E0D1
:102FB000200000F0E7F808E02900200000F076F893
:102FC000024801782000FFF76DFA31BD241300207C
:102FD00080B5CA88012A02D000F068F816E090F89F
:102FE0009C22521E012A02D9921E08D00CE0002118
:102FF0008160012210F1080100F090F806E0012242
:10300000011D00F08BF801E000F050F801BD80B523
:1030100090F89C22521E022A15D8CA88022A02D091
:1030200000F044F811E00121C160D0F8A412002999
:1030300003D0C16851F00201C160022210F10C01FD
:1030400000F06CF801E000F031F801BD80B549886E
:10305000012904D10121C0F8A41200F093F801BDA8
:1030600080B590F89C22521E022A08D8498801296E
:1030700004D10021C0F8A41200F084F801E000F0AF
:1030800015F801BD0A7802704A7842708A78CB78C8
:1030900012EB032242800A794B7912EB03228280E1
:1030A0008A79C97912EB0122C280704710B50400F9
:1030B00080212000FFF75BF800212000FFF757F880
:1030C00010BDF8B504000D0017000026002C1AD022
:1030D000200000F019F84000801C38803878F6B2E3
:1030E000A855761C0320F6B2A855761C08E0207877
:1030F000F6B2A855641C761C0020F6B2A855761CC2
:1031000020780028F3D1F1BD0200002001E0401C2E
:10311000521C11780029FAD1C0B2704780B5130053
:103120000222C0F894229BB2C3619BB203629BB29D
:103130000A000021FFF75BF8002002BD80B51300F4
:103140009BB20A000021FFF752F8002002BD80B5B3
:1031500013000322C0F894229BB2C0F85C319BB2EA
:10316000C0F860319BB20A000021FFF74EF8002042
:1031700002BD80B513009BB20A000021FFF745F89D
:10318000002002BD80B50421C0F894120023002263
:103190000021FFF72CF8002002BD80B50521C0F802
:1031A0009412002300220021FFF72FF8002002BD17
:1031B00080B50848006850F01000064908600320F8
:1031C000FFF707F90F2000F08DFD00F0B1FD0020A2
:1031D00002BD00000020024080B500220F491048C7
:1031E000FFF726F9002801D0FFF79AFB0D490C489C
:1031F000FFF736F9002801D0FFF792FB0A4908488B
:1032000000F048FF002801D0FFF78AFB0448FFF7D1
:1032100031F9002801D0FFF783FB01BD0401002034
:10322000380C0020CC00002050010020F8B402002F
:10323000002300251AE0DFF8E001006830EA04040A
:10324000DFF8D401046010E0DFF8D0010068A0438B
:10325000DFF8C861306048688002ECD5DFF8B8015B
:1032600000680443DFF8B00104605B1C0868D840C4
:10327000002800F0BB8001269E400C683440B44218
:10328000F3D14868002827D001281AD002281DD081
:1032900003282FD0112816D012281AD0604FB84218
:1032A0001AD0604FB84217D05F4FB84214D05F4F6A
:1032B000B84211D05E4FB8420ED05E4FB8420BD02C
:1032C0001AE0CD6818E0CD682D1D15E0CD680835F1
:1032D00012E0CD680C350FE08868002801D1042584
:1032E00007E08868012802D10825166101E0082559
:1032F000566101E00025FFE7B4F5807F01D21000A0
:1033000000E0101DB4F5807F01D29E0002E0B3F111
:103310000806B60007685FF00F0C1CFA06FC37EAD7
:103320000C0715FA06F63E4306604868C0009CD5B7
:103330004148006850F001003F4E30603E48006850
:1033400010F00100009000983C481E00B60850F8AC
:1033500026600F2713F00300C0B280008740BE43F1
:103360003748824201D100270FE03648824201D11E
:1033700001270AE03448824201D1022705E03348A0
:10338000824201D1032700E0042713F00300C0B2FA
:10339000800087403E4329481F00BF0840F827604F
:1033A0004868C00305D52A4800682043284E30608D
:1033B00004E027480068A043254E30604868800339
:1033C00005D5244800682043224E306004E021489F
:1033D0000068A0431F4E30604868C0027FF534AFDC
:1033E0000E48006820430D4E306034E7F1BC704752
:1033F000D2B2002A02D089B2016102E089B2090486
:1034000001617047C26889B211EA020389B291432F
:1034100051EA0341016170470C0401400804014076
:1034200000001110000012100000211000002210F6
:103430000000311000003210181002400800014056
:1034400000080140000C0140001001400014014040
:10345000000401400404014001480068704700BFB7
:103460002013002080B500222549264800F01BFECD
:103470002549244800F020FE002002BD00207047AE
:10348000C0B2002810D001280FD002280ED0032887
:103490000DD004280CD020280BD021280AD02228B7
:1034A00009D0232808D008E007E006E005E004E0A2
:1034B00003E002E001E000E0FFE70020704780B594
:1034C0000100104800F0F8FD0E4800F01AFE002040
:1034D00002BD80B50A0000210A49D1F8B812D1F81E
:1034E0001412002901D0012008E092B20100054821
:1034F00000F0D9FD034800F0E5FDC0B202BD0000B8
:1035000064050020380C00207C010020002200F01F
:1035100015BE00007CB50400002C01D1012035E26D
:103520002078C00740F18480DFF85C06006810F066
:103530000C0004280BD0DFF85006006810F00C00D7
:1035400008280ED1DFF840060068C00309D5DFF86F
:103550003406006880036BD56068002868D10120BC
:1035600014E26068B0F5803F08D1DFF81806006803
:1035700050F48030DFF80C16086038E060680028EE
:1035800010D1DFF80006006830F48030DFF8F41561
:103590000860DFF8F005006830F48020DFF8E415FB
:1035A000086024E06068B0F5A02F10D1DFF8D405E2
:1035B000006850F48020DFF8CC150860DFF8C405FF
:1035C000006850F48030DFF8BC1508600FE0DFF8C9
:1035D000B405006830F48030DFF8A8150860DFF823
:1035E000A405006830F48020DFF898150860606852
:1035F00000280ED0FFF730FF0500DFF888050068CF
:10360000800315D4FFF728FF401B6528F5D303205E
:10361000BCE1FFF721FF0500DFF8680500688003C3
:1036200006D5FFF719FF401B6528F5D30320ADE150
:103630002078800726D5DFF85005006810F00C0FC1
:103640000BD0DFF84405006810F00C00082833D1D7
:10365000DFF834050068C0032ED4DFF828050068C1
:10366000800704D52069012801D001208EE1DFF810
:103670001405006830F0F800616950EAC100DFF815
:1036800004150860207800074ED5A069002800F0D6
:1036900081800120DFF804150860FFF7DDFE0500DA
:1036A000DFF8F404006880073BD4FFF7D5FE401B29
:1036B0000328F5D3032069E1206900281ED00120EA
:1036C000DFF8DC140860FFF7C7FE0500DFF8B4047C
:1036D0000068800706D4FFF7BFFE401B0328F5D320
:1036E000032053E1DFF89C04006830F0F8006169C2
:1036F00050EAC100DFF88C140860C3E70020DFF84F
:10370000A0140860FFF7A8FE0500DFF87804006841
:103710008007B7D5FFF7A0FE401B0328F5D3032091
:1037200034E1012000F01CFA2078400740F1B98014
:103730000025DFF870040068C0000FD4DFF86404CF
:10374000006850F08050DFF85C140860DFF8540423
:10375000006810F08050009000980125DFF84804C0
:103760000068C00529D4DFF84004006850F4807078
:10377000DFF834140860FFF76FFE0600DFF8280456
:103780000068C00519D4FFF767FE801B6528F5D3D4
:103790000320FBE00020DFF804140860FFF75CFE64
:1037A0000500DFF8F40300688007BDD5FFF754FE7D
:1037B000401B0328F5D30320E8E0E068012808D186
:1037C000DFF8E803006850F00100DFF8E01308605C
:1037D00037E0E068002810D1DFF8D0030068400827
:1037E0004000DFF8C8130860DFF8C003006830F05D
:1037F0000400DFF8B813086023E0E068052810D162
:10380000DFF8A803006850F00400DFF8A013086098
:10381000DFF89803006850F00100DFF890130860AB
:103820000FE0DFF88803006840084000DFF87C13F1
:103830000860DFF87803006830F00400DFF86C13EC
:103840000860E068002810D0FFF706FE0600DFF8E9
:103850005C030068800719D4FFF7FEFD801B41F26E
:1038600089318842F3D3032090E0FFF7F5FD06008D
:10387000DFF838030068800708D5FFF7EDFD801BEF
:1038800041F289318842F3D303207FE0EDB2012D6C
:1038900007D1DFF81003006830F08050DFF8041320
:1038A0000860E069002870D0DFF8DC02006810F0E2
:1038B0000C00082855D0E06902283FD10020DFF82D
:1038C000F0120860FFF7C8FD0500DFF8B8020068D5
:1038D000800106D5FFF7C0FD401B0328F5D3032068
:1038E00054E0206AB0F5803F09D1DFF89C020168FE
:1038F00031F40031A0680143DFF88C020160DFF889
:103900008802016831F47411206A0143606A01433E
:10391000DFF8740201600120DFF894120860FFF7FD
:103920009BFD0400DFF85C02006880012DD4FFF7E6
:1039300093FD001B0328F5D3032027E00020DFF8C8
:1039400070120860FFF788FD0400DFF83802006895
:1039500080011AD5FFF780FD001B0328F5D3032053
:1039600014E0E069012801D101200FE0DFF818021E
:10397000006810F48031226A914204D110F4701072
:10398000616A884201D0012000E0002076BD70B558
:1039900004000D00002C01D10120AEE0DFF814027C
:1039A000006810F00700A84211D2DFF80802006892
:1039B000C008C0002843DFF8FC110860DFF8F401FC
:1039C000006810F00700A84201D0012095E020789F
:1039D00080071FD52078400707D5DFF8AC010068C5
:1039E00050F4E060DFF8A01108602078000707D5E8
:1039F000DFF89401006850F46050DFF88C11086023
:103A0000DFF88401016831F0F001A0680143DFF8BC
:103A1000780101602078C00733D56068012805D19E
:103A200058480068800310D4012066E060680228CE
:103A300005D154480068800107D401205DE0514859
:103A40000068800701D4012057E04F4801688908C9
:103A50008900606801434C480160FFF7FDFC0600E7
:103A60004948006810F00C006168B0EB810F08D085
:103A7000FFF7F2FC801B41F289318842F0D303202A
:103A80003BE04C48006810F0070085420ED24948E0
:103A90000068C008C00028434649086045480068DF
:103AA00010F00700A84201D0012026E0207840074E
:103AB00007D53548016831F4E061E06801433248D8
:103AC00001602078000708D52F48006830F4605066
:103AD000216950EAC1002C49086000F00FF836490E
:103AE000294A1268C2F30312895CC8402849086059
:103AF0002848006800F0F6F8002070BD00B585B0D9
:103B000001A82E491022FEF7B9FB2D480088ADF818
:103B10000000002000200020002000201A4801683A
:103B200011F00C00042802D0082802D015E0174834
:103B300014E001A8C1F38342805CC9030AD5694639
:103B4000114A1268C2F340428A5C10494843B0FBF4
:103B5000F2F001E01B49484300E00C4805B000BD0D
:103B600081B00B490968C9084FF47A72B1FBF2F1D0
:103B70004843009000BF0098411E00910028F9D1F1
:103B800001B07047001002400410024000127A0099
:103B9000700100206C010020241002408004424289
:103BA000000042421C100240007000402010024001
:103BB00060004242002002403444000024440000DF
:103BC0007E10000000093D007CB5040000200020AC
:103BD0002078C00763D500253D480068C0000CD49C
:103BE0003B48006850F08050394908603848006808
:103BF00010F0805000900098012536480068C005FC
:103C000013D43448006850F4807032490860FFF7DC
:103C100023FC06002F480068C00506D4FFF71CFCF3
:103C2000801B6528F6D3032050E02B48006810F471
:103C30004070002822D0616811F4407188421DD084
:103C40002548006830F440700121244A11600021A9
:103C5000224A116020490860C0070FD5FFF7FCFB1E
:103C600006001D480068800708D4FFF7F5FB801B9D
:103C700041F289318842F4D3032027E016480168D5
:103C800031F440716068014313480160EDB2012DC9
:103C900005D10F48006830F080500D490860207849
:103CA000800707D50E48016831F44041A068014300
:103CB0000B4801602078C00607D50948016831F437
:103CC0008001E068014306480160002076BD0000E5
:103CD0001C1002400070004020100240400442428C
:103CE0000410024010B504004FF47A700D490978B1
:103CF000B0FBF1F00C490968B1FBF0F0FEF783FB73
:103D0000002801D001200CE0102C09D20022210053
:103D10005FF0FF30FEF761FB04480460002000E024
:103D2000012010BD78010020700100206C010020EE
:103D300081B01148006850F001000F4908600E483A
:103D4000006810F00100009000980C48006850F0E6
:103D500080500A4908600948006810F080500090BF
:103D600000980748006830F0E06050F000700449A7
:103D7000086001B0704700BF181002401C100240DC
:103D80000400014070B504000025207C002813D1F8
:103D90004FF40073022281212000FEF7C9F90120AF
:103DA000E0624FF40073022201212000FEF7C0F907
:103DB0000120C4F86C0110E0402302228121200080
:103DC000FEF7B6F90120E062402302220121200023
:103DD000FEF7AEF90120C4F86C010823032282210A
:103DE0002000FEF7A5F9012020644FF40770FEF7CC
:103DF00021FAC4F8B802D4F8B802002801D101258C
:103E00001EE0D4F8B862D4F8BC02006880470020F5
:103E1000C6F814020020C6F81802207C002808D139
:103E20004FF40073D6F8042201212000FEF7EDF9CB
:103E300006E04023D6F8042201212000FEF7E5F930
:103E40002800C0B270BD38B50400002581212000D3
:103E5000FEF780F90020E06201212000FEF77AF9E8
:103E60000020C4F86C0182212000FEF773F90020C5
:103E70002064D4F8B80200280AD0D4F8BC02406804
:103E80008047D4F8B802FEF7E1F90020C4F8B80280
:103E90002800C0B232BDF8B504000D00D4F8B862F5
:103EA00000208DF800000020ADF8020000272878DF
:103EB00010F06000002828D020285FD1E888002872
:103EC0001BD0287800060CD5EA8831006878D4F831
:103ED000BC329B689847EA8831002000FFF71EF942
:103EE00012E0687886F80002E88886F80102EA881D
:103EF00031002000FFF72BF906E000222900687846
:103F0000D4F8BC329B6898473DE06878002804D01C
:103F10000A2813D00B2821D02AE094F89C02032809
:103F200006D102220DF102012000FFF7F7F804E0AC
:103F300029002000FFF7BAF802271EE094F89C023F
:103F4000032805D1012269462000FFF7E7F804E0C5
:103F500029002000FFF7AAF802270EE094F89C023F
:103F6000032804D029002000FFF7A0F8022704E06E
:103F700029002000FFF79AF8022704E0290020001A
:103F8000FFF794F802273800C0B2F2BD38B5D0F878
:103F9000B832D0F8C042D0F8B822002A2BD0C9B22B
:103FA000142202FB01F20244D269002A1ED0C9B2D7
:103FB000142202FB01F20244D269C9B2282505FB92
:103FC00001F52C44A46BB2FBF4F504FB1522002A86
:103FD0000CD10022C9B2142303FB01F30344DA61BC
:103FE00000230022C9B2FEF702F902E00020C3F864
:103FF0001402002000E0022032BD38B50400D4F8DD
:10400000B852C9B22000FEF70EF9C5F80C02D4F878
:10401000B802002809D015F50371D5F80402D4F8C8
:10402000BC22D2689047002000E0022032BD10B5CB
:104030000300D3F8B842D3F8BC02002810D094F89B
:104040000002FF280CD094F8012292B2210094F8CB
:104050000002D3F8BC329B689847FF2084F8000226
:10406000002010BD43210180064870474321018094
:104070000548704743210180044870470A210180A8
:104080000348704744000020000000208800002002
:104090006001002002000220002902D0C2F8BC12F8
:1040A0000020C0B27047D0F8B802C0F8081292B22F
:1040B000C0F8102200207047D0F8B802C0F80412EF
:1040C0000020704780B5D0F8B822D0F8B812002987
:1040D00015D0D2F8141200290FD10121C2F8141200
:1040E000D2F810120163D2F810329BB2D2F8082233
:1040F0008121FEF77CF8002002E0012000E0022090
:1041000002BD80B5D0F8B822D0F8B812002912D07C
:10411000017C002907D14FF40073D2F80422012159
:10412000FEF773F805E04023D2F804220121FEF7E0
:104130006CF8002000E0022002BD000000B500BFC6
:10414000130096469446103928BFA0E80C50FAD8C0
:104150005FEA417C28BF0CC048BF40F8042BC90768
:1041600028BF20F8022B48BF00F8012B00BD00003B
:10417000122008802C487047042008802B48704784
:1041800080B50A00C0B2002804D129492948FEF7A9
:1041900098FF03E026492748FEF793FF244802BD15
:1041A00080B50A0022492448FEF78BFF204802BD53
:1041B00080B51A20088000F022F8204802BD80B5A2
:1041C0000A00C0B2002804D119491D48FEF779FF42
:1041D00003E017491A48FEF774FF154802BD80B581
:1041E0000A00C0B2002804D111491648FEF769FF41
:1041F00003E00F491348FEF764FF0D4802BD10B5F8
:104200001148006811490C6811490968081800280C
:1042100008D008220F4900F021F804220E4920009E
:1042200000F01CF810BD00003C01002074010020CB
:104230001C110020E4430000104400002001002075
:104240006444000044440000E8F7FF1FECF7FF1F40
:10425000F0F7FF1F220100203201002030B40023BC
:10426000002317E00400240F3734DBB201F81340B9
:1042700009E00400240F0A2CF4D20400240F303487
:10428000DBB201F8134000010024DBB201EB43056F
:104290006C705B1C1C001500E4B2EDB2AC42E8D3BC
:1042A00030BC704719E050F8042BD30744BFA9F184
:1042B00001039A18091F0023042942F8043BF9D28C
:1042C0005FEA817C134604D54FF0000CA2F800C0D1
:1042D0009B1CC90744BF0021197050F8041B00291A
:1042E000E1D1704710B450F8041B79B102684368FB
:1042F00002440830DC0744BFA9F10104E31852F876
:10430000044B43F8044B091FF9D1ECE710BC70478C
:10431000FEE7FEE7FEE7FEE7FEE7704770477047FF
:1043200080B500F009F801BD80B50248FCF77BFFBD
:1043300001BD00004C0900200348016803480078D3
:1043400041180148016070472013002078010020C7
:1043500010B5074979441831064C7C44163404E002
:104360000A68081D114488470146A142F8D110BDD2
:1043700008000000280000002DFFFFFFAC11000026
:104380007C010020000000005DFFFFFF7C010000B9
:1043900098010000000000200000000000F00DF86F
:1043A000002801D0FFF7D4FFAFF300800020AFF367
:1043B0000080FEF7DBF900F002F80120704700F002
:1043C00001B800000746384600F002F8FBE700009D
:1043D00080B5AFF30080024A11001820ABBEFBE7A6
:1043E0002600020053544D333220566972747561B1
:1043F0006C20436F6D506F727400000048656C6CE8
:104400006F5F4344435F544553542121210A0D00FB
:1044100053544D6963726F656C656374726F6E6936
:104420006373000002030405060708090A0B0C0D5C
:104430000E0F101000000000000000000102030435
:104440000607080943444320496E74657266616338
:1044500065000000014880470148004725450000ED
:104460007144000043444320436F6E666967000057
:10447000AFF30080AFF30080FFF790FFFFF7FEBFC0
:10448000FFF7FEBFFFF7FEBFFFF7FEBFFFF7FEBF60
:10449000FFF7FEBFFFF7FEBFFFF7FEBFFFF7FEBF50
:1044A000FFF7FEBFFFF7FEBFFFF7FEBFFFF7FEBF40
:1044B000FFF7FEBFFFF7FEBFFFF7FEBFFFF7FEBF30
:1044C000FFF7FEBFFFF7FEBFFFF7FEBFFFF7FEBF20
:1044D000FFF7FEBFFFF7FEBFFFF7FEBFFFF7FEBF10
:1044E000FFF7FEBFFFF7FEBFFFF7FEBFFFF7FEBF00
:1044F000FFF7FEBFFFF7FEBFFFF7FEBFFFF7FEBFF0
:10450000FFF7FEBFFFF7FEBFFFF7FEBFFFF7FEBFDF
:10451000FFF7FEBFFFF7FEBFFFF7FEBFFFF7FEBFCF
:10452000FFF7FEBF7047000009024300020100C010
:1045300032090400000102020100052400100105F7
:10454000240100010424020205240600010705825B
:104550000308001009040100020A00000007050119
:104560000200020007058102000200000902430068
:10457000020100C03209040000010202010005240A
:104580000010010524010001042402020524060094
:10459000010705820308001009040100020A000057
:1045A00000070501024000000705810240000000ED
:1045B00009074300020104C032090400000102029D
:1045C0000100052400100105240100010424020259
:1045D00005240600010705820308001009040100F4
:1045E000020A0000000705010240000007058102E1
:1045F00040000000853D0000473E0000973E00005F
:10460000000000002F4000008D3F0000FB3F000035
:104610000000000000000000000000006D400000ED
:1046200065400000754000007D40000071410000C1
:1046300079410000A141000081410000B14100002A
:10464000BF410000DF4100001A030000000000002D
:10465000000000000000000000000000000000005A
:1046600000000000120100020202004083044057D3
:104670000002010203010000653400007D340000E7
:1046800081340000BF3400000A0600020000004030
:1046900001000000100000000024F40004030904DD
:0446A0000100000015
:040000050000447142
:00000001FF
